:100000000C9434000C9451000C9451000C94510049
:100010000C9451000C9451000C9451000C9451001C
:100020000C9451000C9451000C9451000C9451000C
:100030000C9451000C9451000C9451000C945100FC
:100040000C9451000C9451000C9409010C94510033
:100050000C9451000C9451000C9451000C945100DC
:100060000C9451000C94510011241FBECFEFD8E026
:10007000DEBFCDBF11E0A0E0B1E0EEE4F4E002C0ED
:1000800005900D92AE31B107D9F711E0AEE1B1E0C4
:1000900001C01D92A136B107E1F70E94C7000C9480
:1000A00025020C940000EF92FF920F931F93DF93B1
:1000B000CF93CDB7DEB7C054D0400FB6F894DEBFB3
:1000C0000FBECDBFFC018B0140E07E010894E11C16
:1000D000F11C1FC0CF0160E170E00E94B6019C01DD
:1000E000A42FBB27A7FDB095942F9F5F2A30310521
:1000F00024F4AE0DBF1D805D04C0AE0DBF1D822F68
:10010000895C8C93492FCF0160E170E00E94B601B9
:10011000FB013097F9F6942F915020E0AE014F5F2C
:100120005F4F0CC0A00FB11FE92FFF27E7FDF0952F
:10013000E40FF51F80818C932F5F9150A22FBB2776
:10014000A7FDB09597FFEECFA00FB11F1C92C05C2A
:10015000DF4F0FB6F894DEBF0FBECDBFCF91DF915A
:100160001F910F91FF90EF900895982F181674F437
:1001700081548A3120F4892F0E9458010895892FD3
:1001800081568A3118F48F5B0E9458010895CF92EE
:10019000DF92EF92FF920F931F93DF93CF93CDB730
:1001A000DEB7C058D0400FB6F894DEBF0FBECDBF4B
:1001B00060E875E280E090E00E94350180E9C82E99
:1001C00081E0D82E7E010894E11CF11C8E010F5BAA
:1001D0001F4F80E091E00E9460010E94550188233A
:1001E000E1F388EE93E0F6013197F1F70197D9F743
:1001F000C7010E949801C7010E94FF01B8010E9437
:100200005300C8010E9460018AE191E00E946001F0
:10021000E0CF1F920F920FB60F9211248F939F93EE
:10022000EF93FF93809120019091C600E82FF0E0BA
:10023000EF5DFE4F90838F5F8093200180912001BE
:100240008F738093200180911E01803428F4809167
:100250001E018F5F80931E01FF91EF919F918F91FF
:100260000F900FBE0F901F9018959B01AC0180E27C
:100270008093C00088E98093C10086E08093C2002B
:1002800084E0220F331F441F551F8A95D1F760E089
:1002900074E284EF90E00E94C90121503040309315
:1002A000C5002093C4007894089580911E0108959C
:1002B000982F8091C00085FFFCCF9093C6000895D1
:1002C000FC0107C08091C00085FFFCCF9093C60061
:1002D000319690819923B1F708959C01F9012F5F20
:1002E0003F4F9491992339F08091C00085FFFCCF56
:1002F0009093C600F3CF089580911E01882311F4D6
:10030000EFEF14C080911F01E82FF0E0EF5DFE4F8A
:10031000E0818F5F80931F0180911F018F73809315
:100320001F0180911E01815080931E018E2F089520
:10033000EF92FF921F93CF93DF937C0110E006C0F2
:100340000E947C01CE0DDF1D88831F5F80911E01FE
:10035000C12FD0E08823A1F7CE0DDF1D1882812F99
:10036000DF91CF911F91FF90EF90089597FB092E99
:1003700007260AD077FD04D02ED006D000201AF42C
:10038000709561957F4F0895F6F7909581959F4FF1
:100390000895A1E21A2EAA1BBB1BFD010DC0AA1FC6
:1003A000BB1FEE1FFF1FA217B307E407F50720F0DE
:1003B000A21BB30BE40BF50B661F771F881F991F59
:1003C0001A9469F760957095809590959B01AC01A2
:1003D000BD01CF010895AA1BBB1B51E107C0AA1F95
:1003E000BB1FA617B70710F0A61BB70B881F991FD6
:1003F0005A95A9F780959095BC01CD010895FC010F
:1004000088279927E89421912032E9F3293010F0C8
:100410002E30C8F32B3241F02D3239F4689404C0E9
:100420000E941D02820F911D219120532A30C0F39A
:100430001EF4909581959F4F08957AE0979F902D97
:0E044000879F802D910D11240895F894FFCF11
:10044E00556E657369746520646563696D616C6E64
:0E045E00692062726F6A3A0D0A000D0A0000F2
:00000001FF
