:100000000C9434000C9451000C9451000C94510049
:100010000C9451000C9451000C9451000C9451001C
:100020000C9451000C9451000C9451000C9451000C
:100030000C9451000C9451000C9451000C945100FC
:100040000C9451000C9451000C949D000C945100A0
:100050000C9451000C9451000C9451000C945100DC
:100060000C9451000C94510011241FBECFEFD8E026
:10007000DEBFCDBF11E0A0E0B1E0ECEDF2E002C0E8
:1000800005900D92A433B107D9F711E0A4E3B1E0D4
:1000900001C01D92A737B107E1F70E9453000C94ED
:1000A0006C010C940000CF92DF92EF92FF921F93AD
:1000B000DF93CF93CDB7DEB7C054D0400FB6F894DE
:1000C000DEBF0FBECDBF60E875E280E090E00E9429
:1000D000C90010E080E9C82E81E0D82E7E01089486
:1000E000E11CF11C80E091E00E94F4000E94E90014
:1000F0008823E1F388EE93E0F6013197F1F7019759
:10010000D9F7C7010E942C0187FD0CC0E82FFF27FB
:10011000E7FDF095EC0FFD1F99818081981739F06C
:1001200010E002C0112321F481E191E003C011E04D
:1001300082E291E00E94F400D5CF1F920F920FB699
:100140000F9211248F939F93EF93FF938091360129
:100150009091C600E82FF0E0E95CFE4F90838F5F3E
:1001600080933601809136018F73809336018091A0
:100170003401803428F4809134018F5F80933401FE
:10018000FF91EF919F918F910F900FBE0F901F9055
:1001900018959B01AC0180E28093C00088E98093B0
:1001A000C10086E08093C20084E0220F331F441F09
:1001B000551F8A95D1F760E074E284EF90E00E94C9
:1001C0004A01215030403093C5002093C4007894F8
:1001D0000895809134010895982F8091C00085FF83
:1001E000FCCF9093C6000895FC0107C08091C00029
:1001F00085FFFCCF9093C600319690819923B1F78B
:1002000008959C01F9012F5F3F4F9491992339F094
:100210008091C00085FFFCCF9093C600F3CF089576
:1002200080913401882311F4EFEF14C080913501DF
:10023000E82FF0E0E95CFE4FE0818F5F80933501AD
:10024000809135018F738093350180913401815005
:10025000809334018E2F0895EF92FF921F93CF93D6
:10026000DF937C0110E006C00E941001CE0DDF1D5F
:1002700088831F5F80913401C12FD0E08823A1F7CC
:10028000CE0DDF1D1882812FDF91CF911F91FF903E
:10029000EF900895A1E21A2EAA1BBB1BFD010DC011
:1002A000AA1FBB1FEE1FFF1FA217B307E407F50726
:1002B00020F0A21BB30BE40BF50B661F771F881F02
:1002C000991F1A9469F760957095809590959B0198
:0C02D000AC01BD01CF010895F894FFCFF0
:1002DC00556E657369746520737472696E670D0A67
:1002EC00004E696A652070616C696E64726F6D0D89
:1002FC000A004A657374652070616C696E64726F74
:04030C006D0D0A0069
:00000001FF
