:100000000C9434000C9451000C9451000C94510049
:100010000C9451000C9451000C9451000C9451001C
:100020000C9451000C9451000C9451000C9451000C
:100030000C9451000C9451000C9451000C945100FC
:100040000C9451000C9451000C9453010C945100E9
:100050000C9451000C9451000C9451000C945100DC
:100060000C9451000C94510011241FBECFEFD8E026
:10007000DEBFCDBF11E0A0E0B1E0E4E4F5E002C0F6
:1000800005900D92AA33B107D9F711E0AAE3B1E0C8
:1000900001C01D92AD37B107E1F70E9453000C94E7
:1000A000A0020C9400002F923F924F925F927F9299
:1000B0008F929F92AF92BF92CF92DF92EF92FF9278
:1000C0000F931F93DF93CF93CDB7DEB7C050D140CE
:1000D0000FB6F894DEBF0FBECDBF80E47E0108945A
:1000E000E11CF11CF701282F11922A95E9F721E470
:1000F000A22EB12CAC0EBD1EF501282F11922A950F
:10010000E9F791E8C92ED12CCC0EDD1EF601282F7F
:1001100011922A95E9F78E010F531F4FF8011192A2
:100120008A95E9F760E875E280E090E00E947F013F
:100130007724470125011601780180E091E00E94B3
:10014000AA010E949F018823E1F388EE93E0E0E991
:10015000F1E03197F1F70197D1F7C4010E94E20174
:10016000A0E0B0E016C0F401EA0FFB1F90819B32C3
:1001700031F09D3221F09A3211F09F3229F4A40D12
:10018000B51D1C92722E08C0F201EA0FFB1F90836E
:1001900011962A2FA8173CF3972D9F5F20E016C0D9
:1001A000E92FFF27E7FDF095E80DF91DE081A22F6B
:1001B000BB27A7FDB095EE2321F4AC0DBD1D1C920D
:1001C00007C0A20DB31DEC932F5F9F5F891744F703
:1001D000E72DFF27E7FDF095E80DF91DE081EB32F3
:1001E00051F0EC321CF4EA32C9F528C0ED3269F066
:1001F000EF32A1F516C0C5010E9449028C01C6016B
:100200000E944902800F911F2BC0C5010E94490224
:100210008C01C6010E9449029801281B390BC901B3
:100220001FC0C5010E9449028C01C6010E944902FB
:10023000BC01C8010E940002CB0112C0C5010E948E
:1002400049028C01C6010E944902FC01E09FC001E5
:10025000E19F900DF09F900D112402C080E090E08E
:10026000B7014AE050E00E94670285E191E00E94F8
:10027000AA01C5010E94AA0185E291E00E94AA019B
:1002800088E291E00E94AA01C6010E94AA0185E2CB
:1002900091E00E94AA01C7010E94AA0185E291E0B3
:1002A0000E94AA014ACF1F920F920FB60F921124FB
:1002B0008F939F93EF93FF9380913C019091C600A1
:1002C000E82FF0E0E35CFE4F90838F5F80933C016A
:1002D00080913C018F7380933C0180913A0180347E
:1002E00028F480913A018F5F80933A01FF91EF915A
:1002F0009F918F910F900FBE0F901F9018959B01AB
:10030000AC0180E28093C00088E98093C10086E060
:100310008093C20084E0220F331F441F551F8A952B
:10032000D1F760E074E284EF90E00E941302215064
:1003300030403093C5002093C40078940895809194
:100340003A010895982F8091C00085FFFCCF9093CB
:10035000C6000895FC0107C08091C00085FFFCCF56
:100360009093C600319690819923B1F708959C012E
:10037000F9012F5F3F4F9491992339F08091C0008C
:1003800085FFFCCF9093C600F3CF089580913A018A
:10039000882311F4EFEF14C080913B01E82FF0E0C7
:1003A000E35CFE4FE0818F5F80933B0180913B01D6
:1003B0008F7380933B0180913A01815080933A0181
:1003C0008E2F0895EF92FF921F93CF93DF937C01BE
:1003D00010E006C00E94C601CE0DDF1D88831F5F9E
:1003E00080913A01C12FD0E08823A1F7CE0DDF1D07
:1003F0001882812FDF91CF911F91FF90EF90089588
:1004000097FB092E07260AD077FD04D02ED006D000
:1004100000201AF4709561957F4F0895F6F7909536
:1004200081959F4F0895A1E21A2EAA1BBB1BFD01C7
:100430000DC0AA1FBB1FEE1FFF1FA217B307E407C3
:10044000F50720F0A21BB30BE40BF50B661F771F1B
:10045000881F991F1A9469F76095709580959095FB
:100460009B01AC01BD01CF010895AA1BBB1B51E14B
:1004700007C0AA1FBB1FA617B70710F0A61BB70B14
:10048000881F991F5A95A9F780959095BC01CD01B9
:100490000895FC0188279927E89421912032E9F3F7
:1004A000293010F02E30C8F32B3241F02D3239F4C0
:1004B000689404C00E948802820F911D21912053EC
:1004C0002A30C0F31EF4909581959F4F0895FB014B
:1004D0009F01E8944230C4F04532B4F44A3029F424
:1004E00097FB1EF4909581959F4F642F77270E946C
:1004F0003502805D8A330CF0895D8193CB010097D2
:10050000A1F716F45DE251931082C9010C94900298
:100510007AE0979F902D879F802D910D112408954B
:10052000DC01FC01672F71917723E1F7329704C05A
:100530007C916D9370836291AE17BF07C8F30895E5
:04054000F894FFCF5D
:10054400556E65736974652056617320697A7261AA
:100554007A3A0D0A0050727669206F706572616E86
:10056400643A0D0A000D0A004472756769206F70C1
:0A0574006572616E643A0D0A000022
:00000001FF
